:1000000059C0000067C0000065C0000063C0000068
:1000100061C000005FC000005DC000005BC0000068
:1000200059C0000057C0000055C0000053C0000078
:1000300051C000004FC000004DC000004BC0000088
:1000400049C0000047C0000045C0000043C0000098
:1000500041C000003FC000003DC000003BC00000A8
:1000600039C0000037C0000035C0000033C00000B8
:1000700031C000002FC000002DC000002BC00000C8
:1000800029C0000027C0000025C0000023C00000D8
:1000900021C000001FC000001DC000001BC00000E8
:1000A00019C0000017C0000015C0000013C00000F8
:1000B00011C0000011241FBECFEFD8E0DEBFCDBFBE
:1000C00021E0A0E0B1E001C01D92A030B207E1F74D
:1000D00091D096C095CF95B184B180628F7784B965
:1000E000892F806A85B908958FEF84B985E090E003
:1000F0002FEF25B93FE34DE053E0315040405040F1
:10010000E1F700C0000015B83FE34DE053E0315087
:1001100040405040E1F700C00000019751F70895BA
:100120008FEF84B985B92FE332E49FE0215030404E
:100130009040E1F700C0000015B82FE332E49FE0E3
:10014000215030409040E1F700C0000085B92FE316
:1001500032E48FE0215030408040E1F700C00000E1
:1001600015B89FE322E43FE0915020403040E1F792
:1001700000C0000008959093C5008093C40088E1FA
:100180008093C1008EE08093C20008959091C000DA
:1001900095FFFCCF8093C60008958091C00087FF33
:1001A000FCCF8091C60008958091C00087FF03C0F6
:1001B0008091C600F9CF08951F93CF93DF938EE30C
:1001C000E5DFEBDF182FE9DFD82FE7DFC82F103589
:1001D00009F4A6DFD93609F487DFC03621F4DF91B0
:1001E000CF911F919DCFDF91CF911F910895E4DFB3
:1001F000DBDFFDCF70DF8BE090E0BDDF91DFF7DF6D
:04020000F894FFCFA0
:00000001FF
