S02100003431322046696E616C2050726F6A65637420426F61726420322E7372656311
S113000059C0000067C0000065C0000063C0000064
S113001061C000005FC000005DC000005BC0000064
S113002059C0000057C0000055C0000053C0000074
S113003051C000004FC000004DC000004BC0000084
S113004049C0000047C0000045C0000043C0000094
S113005041C000003FC000003DC000003BC00000A4
S113006039C0000037C0000035C0000033C00000B4
S113007031C000002FC000002DC000002BC00000C4
S113008029C0000027C0000025C0000023C00000D4
S113009021C000001FC000001DC000001BC00000E4
S11300A019C0000017C0000015C0000013C00000F4
S11300B011C0000011241FBECFEFD8E0DEBFCDBFBA
S11300C021E0A0E0B1E001C01D92A030B207E1F749
S11300D095D09AC095CF95B184B180628F7784B959
S11300E0892F806A85B908958FEF84B985E090E0FF
S11300F02FEF25B93FE34DE053E0315040405040ED
S1130100E1F700C0000015B83FE34DE053E0315083
S113011040405040E1F700C00000019751F70895B6
S11301208FEF84B985B92FE332E49FE0215030404A
S11301309040E1F700C0000015B82FE332E49FE0DF
S1130140215030409040E1F700C0000085B92FE312
S113015032E48FE0215030408040E1F700C00000DD
S113016015B89FE322E43FE0915020403040E1F78E
S113017000C0000008959093C5008093C40088E1F6
S11301808093C1008EE08093C2000895E0ECF0E01B
S1130190908195FFFDCF8093C6000895E0ECF0E0D8
S11301A080818823ECF78091C60008958091C00077
S11301B0882344F4A6ECB0E0E0ECF0E08C9180817C
S11301C08823E4F308951F93CF93DF938EE3DEDF58
S11301D0E5DF182FE3DFD82FE1DFC82F103509F44E
S11301E09FDFD93609F480DFC03609F499DFDF9147
S11301F0CF911F910895E7DFD9DFFDCF6CDF8BE04E
S10F020090E0B9DF8DDFF7DFF894FFCF4A
S9030000FC
