:1000000059C0000072C0000070C000006EC0000047
:100010006CC000006AC0000068C0000066C000003C
:1000200064C0000062C0000060C000005EC000004C
:100030005CC000005AC0000058C0000056C000005C
:1000400054C0000052C0000050C000004EC000006C
:100050004CC000004AC0000048C0000046C000007C
:1000600044C0000042C0000040C000003EC000008C
:100070003CC000003AC0000038C0000036C000009C
:1000800034C0000032C0000030C000002EC00000AC
:100090002CC000002AC0000028C0000026C00000BC
:1000A00024C0000022C0000020C000001EC00000CC
:1000B0001CC0000011241FBECFEFD8E0DEBFCDBFB3
:1000C00011E0A0E0B1E0ECEEF1E002C005900D928D
:1000D000A230B107D9F721E0A2E0B1E001C01D9242
:1000E000A530B207E1F77BD07FC08ACF95B184B14C
:1000F00080628F7784B9892F806A85B908959FEFD0
:1001000094B997B99AB995B998B99BB9982F9F7333
:1001100090930401262F2F73209303014370440F03
:10012000440F607C640F807C86958695680F609391
:100130000201909595B980910301809588B98091CD
:10014000020180958BB987EA91E60197F1F700C02B
:1001500000008091000190910101880F991F9093F8
:1001600001018093000108959093C5008093C4001D
:1001700088E18093C1008EE08093C2000895E0EC96
:10018000F0E0908195FFFDCF8093C6000895E0ECEC
:10019000F0E080818823ECF78091C600089580917B
:1001A000C000882344F4A6ECB0E0E0ECF0E08C91D1
:1001B00080818823E4F30895CF93DF938EE3DFDF1C
:1001C000E6DFC82FE4DFD82FE2DF482F6D2F8C2F1A
:1001D00096DFDF91CF910895EFDFE1DFFDCF86DF7E
:0C01E0008BE090E0C1DFF8DFF894FFCF67
:0201EC00010010
:00000001FF
