S02100003431322046696E616C2050726F6A65637420426F61726420312E7372656312
S113000059C0000072C0000070C000006EC0000043
S11300106CC000006AC0000068C0000066C0000038
S113002064C0000062C0000060C000005EC0000048
S11300305CC000005AC0000058C0000056C0000058
S113004054C0000052C0000050C000004EC0000068
S11300504CC000004AC0000048C0000046C0000078
S113006044C0000042C0000040C000003EC0000088
S11300703CC000003AC0000038C0000036C0000098
S113008034C0000032C0000030C000002EC00000A8
S11300902CC000002AC0000028C0000026C00000B8
S11300A024C0000022C0000020C000001EC00000C8
S11300B01CC0000011241FBECFEFD8E0DEBFCDBFAF
S11300C011E0A0E0B1E0E6E7F4E002C005900D9293
S11300D0AC34B107D9F721E0ACE4B1E001C01D9222
S11300E0A235B207E1F798D1C4C18ACF95B184B1E2
S11300F080628F7784B9892F806A85B908950F93B8
S11301001F9300914E0110914F01209150013091A5
S11301105101062317232823392341E00617170723
S11301202807390709F040E0842F1F910F910895A3
S1130130CF92DF92EF92FF921F93CF93DF936130C0
S1130140710519F4C9E0D0E002C0C0E0D0E0C80FE6
S1130150D91FFE01EE0FFF1FEE0FFF1FE050FF4FF0
S1130160C080D180E280F380C701B601C8DF182FB8
S1130170811129C0CE01099662E170E053D1FC01DE
S1130180EE0FFF1FEE0FFF1FE050FF4F60817181E4
S113019082819381B4DF811117C080914E019091C7
S11301A04F01A0915001B0915101C80ED91EEA1E11
S11301B0FB1EC0924E01D0924F01E0925001F0928A
S11301C0510111E001C010E0812FDF91CF911F9107
S11301D0FF90EF90DF90CF9008958FEF84B987B9A7
S11301E085B92FE332E49FE0215030409040E1F79D
S11301F000C0000015B82FE332E49FE021503040E6
S11302009040E1F700C0000085B92FE332E48FE0AD
S1130210215030408040E1F700C0000015B89FE352
S113022022E43FE0915020403040E1F700C000005C
S113023018B808959093C5008093C40088E1809312
S1130240C1008EE08093C2000895E0ECF0E090815C
S113025095FFFDCF8093C600089560934B01709382
S11302604A018093490190934801089510924B01EB
S113027010924A0110924901F0DF80914B01E5DFB1
S113028080914A01E2DF80914901DFCF089580FF28
S11302900EC0452B31F460E070E080E090E048CF80
S11302A0089561E070E080E090E042CF089581FF1E
S11302B00EC0452B31F460E070E081E090E038CF6F
S11302C0089561E070E081E090E032CF089582FF0C
S11302D00EC0452B31F460E070E082E090E028CF5E
S11302E0089561E070E082E090E022CF089583FFFA
S11302F00EC0452B31F460E070E083E090E018CF4D
S1130300089561E070E083E090E012CF089584FFE7
S11303100EC0452B31F460E070E084E090E008CF3B
S1130320089561E070E084E090E002CF089585FFD5
S11303300EC0452B31F460E070E085E090E0F8CE2B
S1130340089561E070E085E090E0F2CE089561FFE9
S11303500EC0452B31F460E070E086E090E0E8CE1A
S1130360089561E070E086E090E0E2CE089565FFD4
S11303700EC0452B31F460E070E087E090E0D8CE09
S1130380089561E070E087E090E0D2CE089560FFC8
S11303900EC0452B31F460E070E088E090E0C8CEF8
S11303A0089561E070E088E090E0C2CE0895089579
S11303B0AC0183B18F7380934D0166B16372609316
S11303C04C01811102C06623A1F361CF089500E0BE
S11303D010E0E801C170D078DD2324F42197CE6FBA
S11303E0DF6F21968E01CE01E3DF882311F00F5FCA
S11303F01F4F60914E0170914F0180915001909177
S1130400510134DF2FE784E89EE121508040904081
S1130410E1F700C00000DDCF69DE8BE090E00ADF89
S1130420DCDED5DF97FB072E16F4009406D077FDAB
S113043008D00BD007FC05D03EF4909581959F4FD2
S11304400895709561957F4F0895AA1BBB1B51E1D8
S113045007C0AA1FBB1FA617B70710F0A61BB70B30
S1130460881F991F5A95A9F780959095BC01CD01D5
S10904700895F894FFCF8B
S113047602000000080000002000000080000000C8
S113048600020000000800000020000000800000B8
S1130496000002000100000004000000100000003B
S11304A640000000000100000004000000100000ED
S10F04B600400000000001003030303035
S9030000FC
