:1000000059C0000072C0000070C000006EC0000047
:100010006CC000006AC0000068C0000066C000003C
:1000200064C0000062C0000060C000005EC000004C
:100030005CC000005AC0000058C0000056C000005C
:1000400054C0000052C0000050C000004EC000006C
:100050004CC000004AC0000048C0000046C000007C
:1000600044C0000042C0000040C000003EC000008C
:100070003CC000003AC0000038C0000036C000009C
:1000800034C0000032C0000030C000002EC00000AC
:100090002CC000002AC0000028C0000026C00000BC
:1000A00024C0000022C0000020C000001EC00000CC
:1000B0001CC0000011241FBECFEFD8E0DEBFCDBFB3
:1000C00011E0A0E0B1E0E6EBF6E002C005900D9291
:1000D000A839B107D9F721E0A8E9B1E001C01D9224
:1000E000AC3AB207E1F701D2E4C28ACFFC010FB605
:1000F000F8946091A8017091A9018091AA01909152
:10010000AB010FBE309721F06083718382839383AC
:10011000089595B184B180628F7784B9892F806A00
:1001200085B908950F931F9300919A0110919B0137
:1001300020919C0130919D01062317232823392308
:1001400041E0061717072807390709F040E0842F18
:100150001F910F910895CF92DF92EF92FF921F931C
:10016000CF93DF936130710519F4C9E0D0E002C08C
:10017000C0E0D0E0C80FD91FFE01EE0FFF1FEE0F49
:10018000FF1FE45BFE4FC080D180E280F380C70197
:10019000B601C8DF182F811129C0CE01099662E18E
:1001A00070E0AED1FC01EE0FFF1FEE0FFF1FE45B0E
:1001B000FE4F6081718182819381B4DF811117C00C
:1001C00080919A0190919B01A0919C01B0919D0119
:1001D000C80ED91EEA1EFB1EC0929A01D0929B0146
:1001E000E0929C01F0929D0111E001C010E0812F8E
:1001F000DF91CF911F91FF90EF90DF90CF90089506
:100200008F929F92AF92BF92CF92DF92EF92FF9226
:10021000CF93DF93C9E0D0E00BC0C501B40182DF0A
:10022000811106C061E070E0C60195DF81112FC029
:10023000D5D1BE0165D190939F0180939E01880F17
:10024000991F880F991FFC01EC5FFE4FC080D18081
:10025000E280F380C092A401D092A501E092A601B1
:10026000F092A701FC01E85DFE4F80809180A280A2
:10027000B3808092A0019092A101A092A201B092BD
:10028000A301C701B6014EDF8111D2CFC6CFDF91E6
:10029000CF91FF90EF90DF90CF90BF90AF909F9065
:1002A0008F9008958FEF84B987B985B92FE332E431
:1002B0009FE0215030409040E1F700C0000015B8A9
:1002C0002FE332E49FE0215030409040E1F700C03E
:1002D000000085B92FE332E48FE0215030408040A8
:1002E000E1F700C0000015B89FE322E43FE0915021
:1002F00020403040E1F700C0000018B80895909306
:10030000C5008093C40088E18093C1008EE0809393
:10031000C2000895E0ECF0E0908195FFFDCF80935E
:10032000C60008956093970170939601809395019C
:100330009093940108951092970110929601109253
:100340009501F0DF80919701E5DF80919601E2DF72
:1003500080919501DFCF089580FF0EC0452B31F4C9
:1003600060E070E080E090E0F6CE089561E070E03B
:1003700080E090E0F0CE089581FF0EC0452B31F46F
:1003800060E070E081E090E0E6CE089561E070E02A
:1003900081E090E0E0CE089582FF0EC0452B31F45D
:1003A00060E070E082E090E0D6CE089561E070E019
:1003B00082E090E0D0CE089583FF0EC0452B31F44B
:1003C00060E070E083E090E0C6CE089561E070E008
:1003D00083E090E0C0CE089584FF0EC0452B31F439
:1003E00060E070E084E090E0B6CE089561E070E0F7
:1003F00084E090E0B0CE089585FF0EC0452B31F427
:1004000060E070E085E090E0A6CE089561E070E0E5
:1004100085E090E0A0CE089561FF0EC0452B31F439
:1004200060E070E086E090E096CE089561E070E0D4
:1004300086E090E090CE089565FF0EC0452B31F424
:1004400060E070E087E090E086CE089561E070E0C3
:1004500087E090E080CE089560FF0EC0452B31F418
:1004600060E070E088E090E076CE089561E070E0B2
:1004700088E090E070CE08950895AC0183B18F7349
:100480008093990166B1637260939801811102C0F3
:100490006623A1F361CF089580E090E0EEDF6091E4
:1004A0009A0170919B0180919C0190919D0143DF85
:1004B0002FE784E89EE1215080409040E1F700C0A2
:1004C00000009EDE60919A0170919B0180919C01D9
:1004D00090919D0130DF2FE784E89EE1215080401C
:1004E0009040E1F700C00000D7CF80E090E0FEDD53
:1004F000CB0177D00EDE8BE090E001DFD3DECCDFE6
:1005000097FB072E16F4009406D077FD08D00BD089
:1005100007FC05D03EF4909581959F4F0895709506
:1005200061957F4F0895AA1BBB1B51E107C0AA1F0D
:10053000BB1FA617B70710F0A61BB70B881F991F84
:100540005A95A9F780959095BC01CD0108958F9299
:100550009F92AF92BF92CF92DF92EF92FF92CF9392
:10056000DF93EC01688179818A819B816115710536
:100570008105910521F464E279ED8BE597E02DE1A9
:1005800033EF41E050E038D049015A019B01AC0102
:10059000A7EAB1E44DD06B017C01ACEEB4EFA5014C
:1005A000940152D0DC01CB018C0D9D1DAE1DBF1DF1
:1005B000B7FF03C00197A109B04888839983AA8334
:1005C000BB839F77DF91CF91FF90EF90DF90CF902B
:1005D000BF90AF909F908F900895B9CF80E091E049
:1005E000B6CFA0E0B0E08093000190930101A0930A
:1005F0000201B09303010895052E97FB16F40094B1
:100600000FD057FD05D024D007FC02D046F408C017
:1006100050954095309521953F4F4F4F5F4F08952E
:1006200090958095709561957F4F8F4F9F4F08955E
:1006300031D0A59F900DB49F900DA49F800D911D6A
:1006400011240895B7FFF4CFF3DF821B930B0895B5
:10065000A1E21A2EAA1BBB1BFD010DC0AA1FBB1FC6
:10066000EE1FFF1FA217B307E407F50720F0A21B38
:10067000B30BE40BF50B661F771F881F991F1A94A5
:1006800069F760957095809590959B01AC01BD01CF
:10069000CF010895A29FB001B39FC001A39F700D29
:1006A000811D1124911DB29F700D811D1124911D7A
:0606B0000895F894FFCF4D
:1006B600010000000100000004000000100000001E
:1006C60040000000000100000004000000100000CF
:1006D60000400000000001000200000008000000C9
:1006E600200000008000000000020000000800005A
:1006F6000020000000800000000002000200000050
:100706000800000020000000800000000002000039
:100716000008000000200000008000000000020029
:10072600010000000400000010000000400000006E
:10073600000100000004000000100000004000005E
:080746000000010030303030EA
:00000001FF
