:1000000059C0000072C0000070C000006EC0000047
:100010006CC000006AC0000068C0000066C000003C
:1000200064C0000062C0000060C000005EC000004C
:100030005CC000005AC0000058C0000056C000005C
:1000400054C0000052C0000050C000004EC000006C
:100050004CC000004AC0000048C0000046C000007C
:1000600044C0000042C0000040C000003EC000008C
:100070003CC000003AC0000038C0000036C000009C
:1000800034C0000032C0000030C000002EC00000AC
:100090002CC000002AC0000028C0000026C00000BC
:1000A00024C0000022C0000020C000001EC00000CC
:1000B0001CC0000011241FBECFEFD8E0DEBFCDBFB3
:1000C00011E0A0E0B1E0E2E5F6E002C005900D929B
:1000D000A039B107D9F721E0A0E9B1E001C01D9234
:1000E000A839B207E1F7CFD1B2C28ACFFC010FB66F
:1000F000F89460919401709195018091960190918E
:1001000097010FBE309721F06083718382839383C0
:10011000089595B184B180628F7784B9892F806A00
:1001200085B908950F931F9300919001109191014B
:10013000209192013091930106231723282339231C
:1001400041E0061717072807390709F040E0842F18
:100150001F910F9108950F931F930091900110919B
:1001600091012091920130919301062317232823B6
:10017000392341E0061717072807390709F040E03F
:10018000842F1F910F910895AF92BF92CF92DF926B
:10019000EF92FF920F931F93CF93DF93C4E2D1E0CE
:1001A00004E011E00F2EF4E4AF2EF1E0BF2EF02DAD
:1001B000C990D990E990F990C701B601B3DF8111D8
:1001C00011C0F801C190D190E190F1908F01C70169
:1001D000B601A8DF811106C0CA15DB0549F7C12C9D
:1001E000D12C7601C701B601DF91CF911F910F91FC
:1001F000FF90EF90DF90CF90BF90AF9008958FEF7A
:1002000084B987B985B92FE332E49FE021503040AB
:100210009040E1F700C0000015B82FE332E49FE002
:10022000215030409040E1F700C0000085B92FE335
:1002300032E48FE0215030408040E1F700C0000000
:1002400015B89FE322E43FE0915020403040E1F7B1
:1002500000C0000018B808959093C5008093C400B2
:1002600088E18093C1008EE08093C2000895E0ECA5
:10027000F0E0908195FFFDCF8093C60008956093D4
:100280008F0170938E0180938D0190938C0108955E
:1002900010928F0110928E0110928D01F0DF8091EB
:1002A0008F01E5DF80918E01E2DF80918D01DFCF4C
:1002B00008956B017C016091900170919101809192
:1002C000920190919301E4DF2FE784E89EE12150B1
:1002D00080409040E1F700C0000080919001909133
:1002E0009101A0919201B0919301BC01CD016C19D3
:1002F0007D098E099F09609390017093910180930D
:10030000920190939301C4DF8091900190919101AB
:10031000A0919201B09193018C0D9D1DAE1DBF1D4A
:100320008093900190939101A0939201B0939301D7
:100330002FE784E89EE1215080409040E1F700C023
:100340000000B9CFCF92DF92EF92FF921F93CF932D
:10035000DF936130710519F4C9E0D0E002C0C0E05C
:10036000D0E0C80FD91FFE01EE0FFF1FEE0FFF1FD9
:10037000EC5BFE4FC080D180E280F380C701B60104
:10038000EADE182F81112EC0CE01099662E170E0DD
:1003900085D0FC01EE0FFF1FEE0FFF1FEC5BFE4F41
:1003A0006081718182819381D6DE81111EC080912E
:1003B000900190919101A0919201B0919301C80E8A
:1003C000D91EEA1EFB1EC0929001D0929101E092CC
:1003D0009201F0929301D8DE6115710581059105B6
:1003E00019F067DF10E001C011E0812FDF91CF919C
:1003F0001F91FF90EF90DF90CF900895CF93DF9300
:10040000C9E0D0E0B9D0BE0149D060E070E09ADF29
:100410008823C1F3DF91CF910895CF93DF93C9E093
:10042000D0E0AAD0BE013AD061E070E08BDF882333
:10043000C1F3DF91CF910895E1DF60919001709158
:100440009101809192019091930122DF2FE784E83E
:100450009EE1215080409040E1F700C00000DDDFC8
:10046000609190017091910180919201909193011E
:100470000FDF2FE784E89EE1215080409040E1F7B4
:1004800000C00000D9CF80E090E030DECB0177D013
:1004900040DE8BE090E0E0DEB2DECEDF97FB072EA1
:1004A00016F4009406D077FD08D00BD007FC05D0D9
:1004B0003EF4909581959F4F0895709561957F4F7B
:1004C0000895AA1BBB1B51E107C0AA1FBB1FA6179B
:1004D000B70710F0A61BB70B881F991F5A95A9F7ED
:1004E00080959095BC01CD0108958F929F92AF9217
:1004F000BF92CF92DF92EF92FF92CF93DF93EC0106
:10050000688179818A819B816115710581059105D9
:1005100021F464E279ED8BE597E02DE133EF41E0E2
:1005200050E038D049015A019B01AC01A7EAB1E47F
:100530004DD06B017C01ACEEB4EFA501940152D01B
:10054000DC01CB018C0D9D1DAE1DBF1DB7FF03C08F
:100550000197A109B04888839983AA83BB839F77B9
:10056000DF91CF91FF90EF90DF90CF90BF90AF9051
:100570009F908F900895B9CF80E091E0B6CFA0E032
:10058000B0E08093000190930101A0930201B09329
:1005900003010895052E97FB16F400940FD057FD24
:1005A00005D024D007FC02D046F408C050954095F1
:1005B000309521953F4F4F4F5F4F0895909580950F
:1005C000709561957F4F8F4F9F4F089531D0A59FB4
:1005D000900DB49F900DA49F800D911D112408953E
:1005E000B7FFF4CFF3DF821B930B0895A1E21A2E1D
:1005F000AA1BBB1BFD010DC0AA1FBB1FEE1FFF1FC7
:10060000A217B307E407F50720F0A21BB30BE40B16
:10061000F50B661F771F881F991F1A9469F760955D
:100620007095809590959B01AC01BD01CF01089517
:10063000A29FB001B39FC001A39F700D811D112423
:10064000911DB29F700D811D1124911D0895F89484
:02065000FFCFDA
:10065200010000002A000000800A000000A0020041
:10066200822000000882000020080200020202002C
:10067200202200001500000040050000005001008B
:1006820041100000044100001001010001010100BD
:10069200101100000200000008000000200000000D
:1006A200800000000002000000080000002000009E
:1006B20000800000000002000100000004000000B1
:1006C20010000000400000000001000000040000D3
:1006D2000010000000400000000001003030303007
:00000001FF
