:1000000059C0000072C0000070C000006EC0000047
:100010006CC000006AC0000068C0000066C000003C
:1000200064C0000062C0000060C000005EC000004C
:100030005CC000005AC0000058C0000056C000005C
:1000400054C0000052C0000050C000004EC000006C
:100050004CC000004AC0000048C0000046C000007C
:1000600044C0000042C0000040C000003EC000008C
:100070003CC000003AC0000038C0000036C000009C
:1000800034C0000032C0000030C000002EC00000AC
:100090002CC000002AC0000028C0000026C00000BC
:1000A00024C0000022C0000020C000001EC00000CC
:1000B0001CC0000011241FBECFEFD8E0DEBFCDBFB3
:1000C00011E0A0E0B1E0EEE9F5E002C005900D928C
:1000D000A039B107D9F721E0A0E9B1E001C01D9234
:1000E000AA39B207E1F775D158C28ACFFC010FB621
:1000F000F894609196017091970180919801909188
:1001000099010FBE309721F06083718382839383BE
:10011000089595B184B180628F7784B9892F806A00
:1001200085B908950F931F93009192011091930147
:100130002091940130919501062317232823392318
:1001400041E0061717072807390709F040E0842F18
:100150001F910F9108950F931F9300919201109199
:1001600093012091940130919501062317232823B0
:10017000392341E0061717072807390709F040E03F
:10018000842F1F910F910895DF92EF92FF920F93AA
:100190001F93CF93DF93C4E2D1E004E011E00F2E70
:1001A000F4E4EF2EF1E0FF2EF02DDD24D3946991DD
:1001B000799189919991B6DF8111D0929101F801DD
:1001C00061917191819191918F01ACDF8111D092F8
:1001D0009001CE15DF0559F7DF91CF911F910F9157
:1001E000FF90EF90DF900895CF92DF92EF92FF9211
:1001F0001F93CF93DF936130710519F4C9E0D0E00C
:1002000002C0C0E0D0E0C80FD91FFE01EE0FFF1FF3
:10021000EE0FFF1FEC5BFE4FC080D180E280F380C9
:10022000C701B60198DF182F81112AC0CE010996A7
:1002300062E170E0D9D0FC01EE0FFF1FEE0FFF1F4F
:10024000EC5BFE4F608171818281938184DF81113B
:1002500018C08091920190919301A0919401B09166
:100260009501C80ED91EEA1EFB1EC0929201D092C3
:100270009301E0929401F092950186DF11E001C0B4
:1002800010E0812FDF91CF911F91FF90EF90DF90D1
:10029000CF900895CF93DF93C9E0D0E013D1BE0192
:1002A000A3D060E070E0A0DF8823C1F3DF91CF919D
:1002B0000895CF93DF93C9E0D0E004D1BE0194D07C
:1002C00061E070E091DF8823C1F3DF91CF91089561
:1002D0008FEF84B987B985B92FE332E49FE02150CD
:1002E00030409040E1F700C0000015B82FE332E441
:1002F0009FE0215030409040E1F700C0000085B9F8
:100300002FE332E48FE0215030408040E1F700C01D
:10031000000015B89FE322E43FE0915020403040B8
:10032000E1F700C0000018B808959093C5008093CD
:10033000C40088E18093C1008EE08093C2000895DC
:10034000E0ECF0E0908195FFFDCF8093C60008952A
:1003500060938F0170938E0180938D0190938C0137
:10036000089510928F0110928E0110928D01F0DF8E
:1003700080918F01E5DF80918E01E2DF80918D0118
:10038000DFCF089587DF6091920170919301809192
:10039000940190919501E5DF2FE784E89EE12150DB
:1003A00080409040E1F700C0000083DF609192013F
:1003B000709193018091940190919501D2DF2FE784
:1003C00084E89EE1215080409040E1F700C00000A9
:1003D000D9CF80E090E08ADECB0177D09ADE8BE047
:1003E00090E0A3DF75DFCEDF97FB072E16F40094B5
:1003F00006D077FD08D00BD007FC05D03EF49095D1
:1004000081959F4F0895709561957F4F0895AA1B20
:10041000BB1B51E107C0AA1FBB1FA617B70710F0EF
:10042000A61BB70B881F991F5A95A9F78095909521
:10043000BC01CD0108958F929F92AF92BF92CF924F
:10044000DF92EF92FF92CF93DF93EC016881798185
:100450008A819B81611571058105910521F464E212
:1004600079ED8BE597E02DE133EF41E050E038D0B6
:1004700049015A019B01AC01A7EAB1E44DD06B01DF
:100480007C01ACEEB4EFA501940152D0DC01CB01AC
:100490008C0D9D1DAE1DBF1DB7FF03C00197A109A7
:1004A000B04888839983AA83BB839F77DF91CF91DC
:1004B000FF90EF90DF90CF90BF90AF909F908F9084
:1004C0000895B9CF80E091E0B6CFA0E0B0E080938E
:1004D000000190930101A0930201B09303010895DC
:1004E000052E97FB16F400940FD057FD05D024D0AD
:1004F00007FC02D046F408C05095409530952195F0
:100500003F4F4F4F5F4F089590958095709561953F
:100510007F4F8F4F9F4F089531D0A59F900DB49F6F
:10052000900DA49F800D911D11240895B7FFF4CF65
:10053000F3DF821B930B0895A1E21A2EAA1BBB1BAB
:10054000FD010DC0AA1FBB1FEE1FFF1FA217B3079F
:10055000E407F50720F0A21BB30BE40BF50B661FB5
:10056000771F881F991F1A9469F760957095809579
:1005700090959B01AC01BD01CF010895A29FB001F0
:10058000B39FC001A39F700D811D1124911DB29FC7
:0E059000700D811D1124911D0895F894FFCF68
:10059E00010000002A000000800A000000A00200F6
:1005AE0082200000088200002008020002020200E1
:1005BE002022000015000000400500000050010040
:1005CE004110000004410000100101000101010072
:1005DE0010110000020000000800000020000000C2
:1005EE008000000000020000000800000020000053
:1005FE000080000000000200010000000400000066
:10060E001000000040000000000100000004000087
:10061E0000100000004000000000010030303030BB
:00000001FF
