:1000000059C0000072C0000070C000006EC0000047
:100010006CC000006AC0000068C0000066C000003C
:1000200064C0000062C0000060C000005EC000004C
:100030005CC000005AC0000058C0000056C000005C
:1000400054C0000052C0000050C000004EC000006C
:100050004CC000004AC0000048C0000046C000007C
:1000600044C0000042C0000040C000003EC000008C
:100070003CC000003AC0000038C0000036C000009C
:1000800034C0000032C0000030C000002EC00000AC
:100090002CC000002AC0000028C0000026C00000BC
:1000A00024C0000022C0000020C000001EC00000CC
:1000B0001CC0000011241FBECFEFD8E0DEBFCDBFB3
:1000C00011E0A0E0B1E0E0E2F2E002C005900D92A4
:1000D000A030B107D9F721E0A0E0B1E001C01D9246
:1000E000A430B207E1F792D099C08ACF95B184B11C
:1000F00080628F7784B9892F806A85B90895CF92FD
:10010000DF92EF92FF920F931F93009100011091E5
:100110000101209102013091030168017901C62299
:10012000D722E822F922CA94CD28CE28CF2871F010
:10013000DC01CB01800F911FA21FB31F8093000130
:1001400090930101A0930201B09303011F910F91BD
:10015000FF90EF90DF90CF9008958FEF84B985B92D
:100160002FE332E49FE0215030409040E1F700C09F
:10017000000015B82FE332E49FE02150304090405A
:10018000E1F700C0000085B92FE332E48FE0215091
:1001900030408040E1F700C0000015B89FE322E442
:1001A0003FE0915020403040E1F700C0000008954A
:1001B00080FF0EC0452B31F461E070E080E090E0FC
:1001C0009ECF089562E070E080E090E098CF0895BF
:1001D00060FF0DC0452B31F460E070E180E090E0FD
:1001E0008ECF089560E070E280E090E088CF0895BF
:1001F000AC0114B89AB19F739AB989B1807C63B18C
:100200006F73811101C0C9F3D3CF08956FDFA5DFEC
:1002100080E090E0EDDF80E090E00895F894FFCF7B
:00000001FF
